:060000000A128A11C02F54
:100EE4003F3406345B344F3466346D347C34073419
:100EF4007F346F347E088A007F0882000A128A11C8
:100F04007C270A128A118000840A04087D060319CA
:100F14000034FF0A0319FE0A802F83160313870186
:100F2400932FFD010A307D02031C992F9A2F9C2FC9
:100F3400932F932F7D08703E8400000883120313BF
:100F440087001A30FC005E30FB008630FA00FA0B92
:100F5400A92FFB0BA92FFC0BA92F00000130FA00CD
:100F64007A08FD070A307D02031CB92FBA2F9C2F83
:100F7400932F932F932F0A128A1100280A128A1191
:100F840072270A128A11F0000A128A1173270A12B0
:100F94008A11F1000A128A1174270A128A11F200C6
:100FA4000A128A1175270A128A11F3000A128A1189
:100FB40076270A128A11F4000A128A1177270A1274
:100FC4008A11F5000A128A1178270A128A11F6008A
:100FD4000A128A1179270A128A11F7000A128A1151
:100FE4007A270A128A11F8000A128A117B270A1238
:0C0FF4008A11F90083010A128A118F2F64
:02400E00BAFFF7
:00000001FF
